:020000040000FA
:020000001028C6
:080008000C1C0E28A30A2308BA
:100010001E3C031D0E28A301871010100C100900B0
:1000200083160313013085000F3086008801890193
:100030007D3099002030980002309F008312031316
:100040008701A101A2013030900090309800831602
:100050000313803087000C14831203130B178B17C4
:100060005620803C03183628071437280710061836
:100070003D28061C3928A10A5E2086184328861CC4
:100080003F28A1035E2006194B28061D452887142A
:100090001014A20A5E2086193028861D4D28A2035E
:1000A0005E203028A001A00B53280800C1309F001B
:1000B00052201F151F195A281E08080021080F3C3E
:1000C000031864280F30A10021089900522022084B
:1000D0000F3C03186D280F30A2002208990052200F
:0200E000080016
:02400E0039393E
:00000001FF
