:020000040000FA
:020000001228C4
:080008008C1E1128270884005A
:100010001A088000A70A2708233C031D1128213055
:10002000A70009008316031385018601803087002D
:10003000880189017D3099008C16831203130F30DB
:10004000870090309800A101A201A301A401A5019D
:10005000A601C001C101C201C3012130A7000B17D5
:100060008B17C30A23304302031D3928C301013013
:10007000C20621080F39B2000F3C03194128C00104
:1000800043280130C0000A30B30096203008A30096
:100090003108A400C00803195328C20803195328C3
:1000A0000A30A300A40022080F39B2000F3C031944
:1000B0005B28C1015D280130C1000A30B3009620E1
:1000C0003008A5003108A600C10803196D28C20830
:1000D00003196D280A30A500A600881123088A207C
:1000E000860008148620081024088A2086008814B8
:1000F0008620881025088A20860008158620081189
:1001000026088A208600881586203128A001A00BA9
:10011000872808008207C034F934A434B0349934F5
:1001200092348234F83480349034FF34B001B10119
:100130003208B4003308B402031CA2283308B20208
:0A014000B00A98283208B100080048
:02400E0039393E
:00000001FF
